S00E00006C70756172742E737265637E
S113000018FFFF1F8D0C0000C10000004701000015
S113001000000000000000000000000000000000DC
S1130020000000000000000000000000A901000022
S11300300000000000000000AF0100008B0C000075
S1130040E50D0000E50D0000E50D0000E50D0000E4
S1130050E50D0000E50D0000E50D0000E50D0000D4
S1130060B50D0000E50D0000BD0D0000E50D00001C
S1130070C50B0000C50D0000CD0D0000E50D00000E
S1130080E50D0000E50D0000E50D0000E50D0000A4
S1130090E50D0000E50D0000E50D0000E50D000094
S11300A0E50D0000E50D0000E50D0000E50D000084
S11300B0E50D0000E50D0000D50D0000DD0D00008C
S11300C0FEE7000070B4103A03D378C9103A78C040
S11300D0FBD2530701D318C918C001D508C908C0F9
S11300E0D20704D30B880380891C801C002A01D505
S11300F00B78037070BC70471206130A1A43130C72
S11301001A4300BF094205D0830705D00270401C82
S1130110491EF9D1704700001300103906D330B4DA
S11301201400150010393CC0FCD230BC490700D380
S11301300CC000D504C0890002D30280801C0029B1
S113014000D502707047FEE7154982008A58802363
S1130150DB05134380000B50704710B4104A830032
S1130160D358840013518300D358C9B20906E0243C
S1130170E4040C401C4381005450810051588023F6
S1130180DB050B438000135010BC704705490A6817
S1130190C0B20002E023DB00034013430B6070474E
S11301A00050064004430640FEE700007047FEE7A7
S11301B080B50C480168890403D50B490B4A1160CA
S11301C004E00A490A4A0A600A4A0A600A490B4AD0
S11301D0116001688022914320220A43026000F0EA
S11301E01DFD01BD0020054020C528D9042005407F
S11301F020C5000028D90000FFFF000008200540AA
S107020001000000F5
S1130400FFFFFFFFFFFFFFFFFFFFFFFFFEFFFFFFF9
S113041000B50100C9B230390A2902D2D030C0B2C5
S113042010E00100C9B24139062902D2C930C0B274
S113043008E00100C9B26139062902D2A930C0B26C
S113044000E0FF2000BDF1B5C4B00D0028785328AA
S113045009D0012002A98871449802A9842252007B
S1130460FFF730FE59E10124260000E0761CA85D68
S11304700D2810D0A85D0A280DD0A85DFFF7C8FF8D
S11304801028F3DB02A88471449802A98422520044
S1130490FFF718FE41E102AC6878FFF7B9FF60711D
S11304A060790A2808DB0220A071449802A98422FA
S11304B05200FFF707FE30E1A878FFF7A9FF070114
S11304C0E878FFF7A5FF3843694608716846007964
S11304D04000001D864208D20420A071449802A95D
S11304E084225200FFF7EEFD17E16079002811D055
S11304F0012838D0022853D0032800D17FE00528F2
S113050031D006284CD0072879D0082848D00928AB
S113051029D0B5E00020029068460079FD302071B2
S1130520684600790299090E40180299090C40188E
S11305300299090A4018029940186946487160797D
S1130540042800DBC1E0FF210026009602A8C71D95
S1130550009A3800FFF7D0FD684600792179401AE7
S11305604700BF1CAEE02879FFF752FF0700687907
S1130570FFF74EFF0600A879FFF74AFFFFB23903E1
S1130580F6B232020A43C0B206011643E879FFF715
S11305903FFF3043029068460079FD302071BFE789
S11305A02879FFF735FF694648706879FFF730FF0F
S11305B069460870A879FFF72BFF0700E879FFF771
S11305C027FF0600287AFFF723FF694649780905C3
S11305D06A46127812040A43FFB239031143F6B291
S11305E032020A43C0B206011643687AFFF710FFCD
S11305F03043029068460079FC30207190E72879F6
S1130600FFF706FF6946C8706879FFF701FF69467E
S11306108870A879FFF7FCFE69464870E879FFF70F
S1130620F7FE69460870287AFFF7F2FE0700687A39
S1130630FFF7EEFE0600A87AFFF7EAFE6946C978DE
S113064009076A46927812060A43694649780905F9
S113065011436A46127812040A43FFB23903114364
S1130660F6B232020A43C0B206011643E87AFFF733
S1130670CFFE3043029068460079FB3020714FE78B
S11306800020A071449802A984225200FFF71AFDA9
S113069043E070003818285CFFF7BAFE01010091AE
S11306A07000381828184078FFF7B2FE0099084304
S11306B0A119C87168464079A119C97940186946D9
S11306C04871761C20798642E3D368464079C64354
S11306D068460079400028188078FFF799FE0701E2
S11306E06846007940002818C078FFF791FE384327
S11306F0F6B2C0B2864208D00320A071449802A981
S113070084225200FFF7DEFC07E00020A071449829
S113071002A984225200FFF7D5FC45B0F0BD0000C9
S113072000B5010049B2002905D40121C006C00E5C
S113073081404E48016000BD80B50220FFF726FDD0
S113074003216A20FFF709FD01BD38B5050000F05B
S11307507CF86A20FFF7F8FC454C200000F0A0F874
S1130760AA782988200000F0A6F8002200212000A1
S113077000F0BBF80021200000F0D1F80021200097
S113078000F0D6F80021200000F0C0F8200000F0AE
S1130790D8F8200000F0E4F8200000F086F80C20DF
S11307A0FFF7BEFF31BDF8B507000D0016000420A9
S11307B0694608802EE0281A1EE00A20784369461C
S11307C00988694300F0D2F8401D0A2100F0CEF8F0
S11307D06946887068468078002802D101206946FD
S11307E08870380069460A8869468978514300F060
S11307F0BDF88542DFD2401B844206D3040068461C
S11308000088308068468078B070684669460988F8
S1130810491C0180684600882128CED3F1BD00B56B
S113082008E0144A12681202FBD50278124B1A60CF
S1130830401C491E0029F4D10E4800684002FBD533
S113084000BD0D4909680170704710B54A20FFF7D3
S11308507BFC0A4C02220021200000F011F8022245
S11308600121200000F00CF810BD000000E100E0C0
S113087000A0064014A006401CA0064000A00440AE
S113088010B40B009BB29B00C358D2B21202E024F6
S1130890E40014401C4389B28900445010BC7047E2
S11308A081692C4A0A40826170478169C02212031F
S11308B00A438261704710B503690C00A4B2241F77
S11308C0042C03D21C0080239B022343224C1C4093
S11308D089B2491E0B06F821490519402143490BE9
S11308E04903D2B20A43026110BD10B483690324E0
S11308F0A343C9B24900022421401943D2B21300D0
S1130900DB07DB0F0B43836110BC70478269C9B2FC
S1130910090780235B0519401143816170474269CF
S1130920C9B2490780239B051940114341617047AF
S11309300269C9B2490380239B0119401143016133
S113094070470169054A0A40026181691022914396
S113095081617047FFFFF3FFFFFFFFE0FFFFFFDF51
S11309608169802292030A43826170470022030A4C
S11309708B420BD203098B4219D243088B422ED2ED
S1130980411A00D20146524110467047FF22090223
S11309903FD012068B4205D3121209028B4201D3B7
S11309A01212090203098B4219D300E0090AC30990
S11309B08B4201D3CB01C01A524183098B4201D32C
S11309C08B01C01A524143098B4201D34B01C01A17
S11309D0524103098B4201D30B01C01A5241C3088F
S11309E08B4201D3CB00C01A524183088B4201D3FE
S11309F08B00C01A524143088B4201D34B00C01AEA
S1130A005241884200D3401A5241CFD20146104687
S1130A10704708B5FFF7CAFB08BD000010B5040015
S1130A208020C000205A000220183849615A40181A
S1130A30FFF707FF8020C000205A00022018334926
S1130A40615A405C0A2823D100200100304AA15495
S1130A508021C900615A491C8022D200A1522B492D
S1130A6060528021C900615A042902DB8021C90037
S1130A7060528020C000205A2649615A88420CD115
S1130A800120254960540D212448FFF7C8FE04E0E5
S1130A901E48205A401C1D49605210BD38B5C2B0D2
S1130AA004000D001B48205A000221186846FFF775
S1130AB0CAFC2800694684225200FFF703FB15484C
S1130AC0205A401C134960521248205A042802DB61
S1130AD00020104960528020C000205A0D49615AFC
S1130AE0884202D101200A49605443B030BD00213C
S1130AF08022D2008152074A8152044A8152064A16
S1130B0081540121024A815470470000040400000A
S1130B10070400000204000006040000780D000031
S1130B2070B5FFF709FE2C4C2200E12149022B4845
S1130B30FFF739FE2000FFF708FE294E3000FFF7CB
S1130B40D6FF284D0120287006E027480168274871
S1130B50FFF765FE002028702878002830D024484C
S1130B60305C0028F8D1234C21003000FFF796FFB9
S1130B70A0790128E9D01DD3032813D002D3042877
S1130B8008D017E01C4801681C48FFF748FE002005
S1130B902870E1E71A4801681A48FFF740FE002070
S1130BA02870D9E7184801681848FFF738FE002074
S1130BB02870D1E7164801681648FFF730FECBE7E6
S1130BC0002070BD80B506481349415C002901D15D
S1130BD0FFF724FF01BD000014FDFF1F00366E0166
S1130BE004F8FF1F00F8FF1FEC0D0000880D000043
S1130BF0070400000CFCFF1FF00D0000940D000022
S1130C00F40D0000A00D0000F80D0000680D0000B8
S1130C10FC0D0000AC0D000006040000704770B429
S1130C200123002413E00168001D194202D04D463F
S1130C306918491E0C60091D121F042AFAD20D00FE
S1130C40960701D50C80AD1C1A4000D02C700268A8
S1130C50001D002AE7D170BC704730B401220EE0B9
S1130C600368C31844680830144202D04D462C1956
S1130C70641E1D6825601B1D241D091FF9D1016810
S1130C80001D0029ECD130BC7047FEE772B6054860
S1130C90054901600A6882F308880448804762B6FF
S1130CA00348004708ED00E000000000B101000027
S1130CB04D0D000010B5074979441831064C7C44A9
S1130CC0163404E0081D0A68891888470100A14207
S1130CD0F8D110BD080000002800000043FFFFFF0A
S1130CE01405000004F8FF1F000000006FFFFFFF61
S1130CF0040000000CF5FFFF00F8FF1F00000000D7
S1130D0000F00DF8002801D0FFF7D4FF00BF00BFAA
S1130D10002000BF00BFFFF703FF00F002F801202E
S1130D20704780B500F002F801BD00000746384660
S1130D3000F002F8FBE7000080B500BF00BF024AE4
S1130D4011001820ABBEFBE726000200054801464F
S1130D5003B4684680F3098800BF00BF00BF00BF2A
S1130D60FFF7CEFFA5EDF5FE42414420434845433D
S1130D704B2053554D21000066756C6C20627566DE
S1130D806665720A0000000042414420464F524DFD
S1130D9041542100424144205245434F52442100D2
S1130DA042414420434F554E542100003E3E0D0A1B
S1130DB00000000000480047E50D0000004800471F
S1130DC0E50D000000480047E50D0000004800471D
S1130DD0E50D000000480047E50D0000004800470D
S1130DE0E50D000000480047E50D00000B00000081
S1130DF00B0000000A0000000E00000004000000C8
S9030D4DA2
