S01000004D6F636B50726F6A2E73726563EF
S1130000A8FEFF1FED140000950F00009B0F0000D9
S113001000000000000000000000000000000000DC
S113002000000000000000000000000007140000B1
S11300300000000000000000AF150000BB15000028
S11300404916000049160000491600004916000030
S11300504916000049160000491600004916000020
S11300601916000049160000211600004916000068
S11300706D0F00002916000031160000491600001B
S113008049160000491600004916000049160000F0
S113009049160000491600004916000049160000E0
S11300A049160000491600004916000049160000D0
S11300B049160000491600003916000041160000D8
S11300C070B4103A03D378C9103A78C0FBD25307FE
S11300D001D318C918C001D508C908C0D20704D370
S11300E00B880380891C801C002A01D50B780370BF
S11300F070BC7047154982008A588023DB0513437E
S113010080000B50704710B4104A8300D358840009
S113011013518300D358C9B20906E024E4040C4007
S11301201C4381005450810051588023DB050B434C
S11301308000135010BC704705490A68C0B2000221
S1130140E023DB00034013430B607047005006407C
S1130150044306400022030A8B420BD203098B425C
S113016019D243088B422ED2411A00D20146524181
S113017010467047FF2209023FD012068B4205D376
S1130180121209028B4201D31212090203098B4293
S113019019D300E0090AC3098B4201D3CB01C01A69
S11301A0524183098B4201D38B01C01A5241430946
S11301B08B4201D34B01C01A524103098B4201D334
S11301C00B01C01A5241C3088B4201D3CB00C01AA1
S11301D0524183088B4201D38B00C01A5241430819
S11301E08B4201D34B00C01A5241884200D3401ABB
S11301F05241CFD201461046704708B500F0CCFEFC
S10B020008BD000000A000008D
S1130400FFFFFFFFFFFFFFFFFFFFFFFFFEFFFFFFF9
S113041000B5010049B2002905D40121C006C00E6F
S11304208140A448016000BD00B5010049B2002923
S113043009D40121C006C00E81409F480160BFF36A
S11304404F8FBFF36F8F00BD00B5C0B2002806D038
S113045002281CD00FD3042831D024D33AE0974883
S11304600A0092B29200825880239B00134389B2FF
S1130470890043502EE092480A0092B292008258BA
S113048080239B00134389B28900435022E0A04893
S11304900A0092B29200825880239B00134389B2CF
S11304A08900435016E09B480A0092B29200825899
S11304B080239B00134389B2890043500AE0AD486E
S11304C00A0092B29200825880239B00134389B29F
S11304D08900435000BD00B5C0B2002803D00228F3
S11304E00DD006D310E08C480168A34A0A4002608C
S11304F00AE08A480168A04A0A40026004E09F4872
S113050001689D4A0A40026000BD00B5C0B20028DF
S113051003D002280FD007D313E07F480168C0221C
S113052012030A4302600CE07C480168C0221203F3
S11305300A43026005E091480168C02212030A439D
S1130540026000BD10B50400E4B2002C03D0022CFC
S113055007D003D307E0994B1B6804E0984B1B6852
S113056001E0984B1B680C00A4B2241F042C03D296
S11305701C0080239B022343934C1C4089B2491ED8
S11305800B06F821490519402143490B4903C0B220
S1130590002803D002280BD005D30DE0D2B20A43C1
S11305A08648026008E0D2B20A438548026003E04C
S11305B0D2B20A438348026010BD10B50400E4B20D
S11305C0002C03D0022C0BD005D30DE0524B1B683A
S11305D00324A34308E0514B1B680324A34303E013
S11305E0664B1B680324A343C9B24900022421407B
S11305F01943D2B21300DB07DB0F0B43C0B2002850
S113060003D0022807D003D307E04348036004E083
S11306104248036001E05948036010BD00B5C0B210
S1130620002803D0022815D00AD31CE03A480268F7
S1130630C9B2090780235B0519401143016012E028
S113064036480268C9B2090780235B051940114383
S1130650016008E049480268C9B2090780235B05C4
S113066019401143016000BD00B5C0B2002803D099
S1130670022815D00AD31CE07B480268C9B2490796
S113068080239B0519401143016012E077480268FA
S1130690C9B2490780239B0519401143016008E052
S11306A073480268C9B2490780239B051940114366
S11306B0016000BD00E100E080E100E00090044042
S11306C000A0044000B5C0B2002803D0022815D011
S11306D00AD31CE039480268C9B2490380239B014C
S11306E019401143016012E035480268C9B2490358
S11306F080239B0119401143016008E05D480268B2
S1130700C9B2490380239B0119401143016000BD14
S113071000B0044000C0044018A0064018B00640D1
S113072000B5C0B2002803D0022817D00BD31FE0B5
S113073022480168504A0A40026050480168102269
S11307409143016014E01E4801684B4A0A4002606C
S11307504B48016810229143016009E0194801687F
S1130760454A0A400260054801681022914301602D
S113077000BD000000D00440FFFFF3FF18C0064096
S113078000B5C0B2002803D002280FD007D313E06D
S11307903A480168802292030A4302600CE0384818
S11307A00168802292030A43026005E0354801682B
S11307B0802292030A43026000BD000010A006409C
S11307C010B0064010C00640FFFFFFE080B5C0B285
S11307D0002803D0022809D004D30AE00C20FFF734
S11307E017FE06E00D20FFF713FE02E00E20FFF7D0
S11307F00FFE01BD80B5C0B2002803D0022809D085
S113080004D30AE00C20FFF70FFE06E00D20FFF7EB
S11308100BFE02E00E20FFF707FE01BD00B508E065
S1130820114800680002FBD50878174B1860491C72
S1130830521E002AF4D10C4800684002FBD500BDCA
S113084000B5C0B2002803D0022809D004D30AE0BE
S11308500D480068087006E00C480068087002E063
S11308600B480068087000BD14A0064014B0064090
S113087014C0064010C00640FFFFFFDF18A006406A
S113088018B0064018C006401CA006401CB0064024
S11308901CC0064000B50100C9B230390A2902D291
S11308A0D030C0B210E00100C9B24139062902D2E9
S11308B0C930C0B208E00100C9B26139062902D2C8
S11308C0A930C0B200E0FF2000BDF1B5A4B00C0017
S11308D02078532808D0012002A98871249802A9FD
S11308E08422FFF7EDFB69E10126350000E06D1C71
S11308F0605D0D280FD0605D0A280CD0605DFFF7A5
S1130900C9FF1028F3DB02A88671249802A9842267
S1130910FFF7D6FB52E16078FFF7BCFF02A94871EC
S113092002A840790A2808DB022002A988712498C9
S113093002A98422FFF7C4FB40E1A078FFF7AAFFD5
S11309400601E078FFF7A6FF304369460871684660
S113095000794000001D854208D2042002A9887154
S1130960249802A98422FFF7ABFB27E102A840796F
S1130970002812D0012842D002285ED0032800D1DA
S113098089E005283BD0062857D0072800D182E00B
S1130990082852D0092832D0BDE0002002906846D1
S11309A00079FD3002A90871684600790299090EA0
S11309B040180299090C40180299090A4018029932
S11309C0451802A84079042800DBC8E0FF2002A9EA
S11309D002AA12798918C87102A902AA127989187F
S11309E0087202A902AA1279891848726846007925
S11309F002A90979401A4700BF1C0026ABE0207900
S1130A00FFF748FF05006079FFF744FF0600A0796F
S1130A10FFF740FFEDB22903F6B232020A43C0B237
S1130A2005011543E079FFF735FF28430290684636
S1130A300079FD3002A90871B6E72079FFF72AFF93
S1130A40694608706079FFF725FF0700A079FFF772
S1130A5021FF0500E079FFF71DFF0600207AFFF76C
S1130A6019FF694609780905FFB23A040A43EDB251
S1130A7029031143F6B232020A43C0B205011543F9
S1130A80607AFFF707FF2843029068460079FC303C
S1130A9002A9087188E72079FFF7FCFE694688708F
S1130AA06079FFF7F7FE69464870A079FFF7F2FE18
S1130AB069460870E079FFF7EDFE0700207AFFF73A
S1130AC0E9FE0500607AFFF7E5FE0600A07AFFF76D
S1130AD0E1FE6946897809076A46527812060A4394
S1130AE06946097809051143FFB23A040A43EDB295
S1130AF029031143F6B232020A43C0B20501154379
S1130B00E07AFFF7C7FE2843029068460079FB307D
S1130B1002A9087148E7002002A98871249802A953
S1130B208422FFF7CDFA49E070003818205CFFF703
S1130B30B1FE010100917000381820184078FFF7C9
S1130B40A9FE0099084302A98919C87102A880194D
S1130B50C0792D18761C02A800798642E4D3EDB240
S1130B60E843050068460079400020188078FFF7C4
S1130B7091FE06016846007940002018C078FFF70E
S1130B8089FE3043EDB2C0B2854208D0032002A9E9
S1130B908871249802A98422FFF792FA0EE00020BB
S1130BA002A9887102A84079092802D1052002A966
S1130BB08871249802A98422FFF782FA25B0F0BD37
S1130BC000B5C0B2002806D002282AD016D30428C3
S1130BD04DD039D35EE088480A0092B29200825820
S1130BE080235B0013430A0092B29200835083482F
S1130BF0026801238B409A4302604BE080480A005C
S1130C0092B29200825880235B0013430A0092B28E
S1130C10920083507B48026801238B409A43026010
S1130C2038E079480A0092B29200825880235B002F
S1130C3013430A0092B2920083507448026801235D
S1130C408B409A43026025E071480A0092B29200F8
S1130C50825880235B0013430A0092B292008350AF
S1130C606C48026801238B409A43026012E06A4890
S1130C700A0092B29200825880235B0013430A0058
S1130C8092B2920083506548026801238B409A43D4
S1130C900260FFE700BD10B5C0B2002806D00228EC
S1130CA034D01BD3042861D048D377E052480B00DA
S1130CB09BB29B00C35802241C430B009BB29B00B5
S1130CC0C4500B009BB29B00C358D2B21400E4077B
S1130CD0E40F1C4389B2890044505FE048480B008C
S1130CE09BB29B00C35802241C430B009BB29B0085
S1130CF0C4500B009BB29B00C358D2B21400E4074B
S1130D00E40F1C4389B28900445047E03E480B007D
S1130D109BB29B00C35802241C430B009BB29B0054
S1130D20C4500B009BB29B00C358D2B21400E4071A
S1130D30E40F1C4389B2890044502FE034480B006F
S1130D409BB29B00C35802241C430B009BB29B0024
S1130D50C4500B009BB29B00C358D2B21400E407EA
S1130D60E40F1C4389B28900445017E02A480B0061
S1130D709BB29B00C35802241C430B009BB29B00F4
S1130D80C4500B009BB29B00C358D2B21400E407BA
S1130D90E40F1C4389B289004450FFE710BD00B53D
S1130DA00200D2B2002A06D0022A10D009D3042AA3
S1130DB019D012D31DE01A4802680120884010405F
S1130DC017E01848026801208840104011E01648D6
S1130DD002680120884010400BE01448026801209A
S1130DE08840104005E01248026801208840104005
S1130DF0FFE7C0B200BD00000090044014F00F40B3
S1130E0000A0044054F00F4000B0044094F00F40A0
S1130E1000C00440D4F00F4000D0044014F10F404F
S1130E2010F00F4050F00F4090F00F40D0F00F4002
S1130E3010F10F4080B50220FFF77EF903216A20EC
S1130E40FFF761F901BD80B500F073F86A20FFF780
S1130E5051F90020FFF73FFB4A48827801880020BF
S1130E60FFF770FB002200210020FFF7A6FB002102
S1130E700020FFF7F9FB01210020FFF723FC0021EC
S1130E800020FFF7CBFB0020FFF74AFC0020FFF710
S1130E9077FC0020FFF79AFC0020FFF736FB01BD2A
S1130EA078B505000E000420694608802FE0301A4A
S1130EB01EE00A206843694609887143FFF74AF92E
S1130EC0401D0A21FFF746F9694688706846807814
S1130ED0002802D1012069468870280069460A88E2
S1130EE0694689785143FFF735F98642DFD2801B82
S1130EF0844207D30400234869460988018069466F
S1130F008978817068460088401C69460880684674
S1130F1000882128CDD371BD80B50A0001000020CE
S1130F20FFF77CFC01BD80B501000020FFF788FCC1
S1130F3001BD80B54A20FFF7DDF800210120FFF74D
S1130F4083FA01210120FFF77FFA01BD0E490860F1
S1130F5070470E490860704780B50020FFF736FCE3
S1130F6001BD80B50020FFF745FC01BD80B50748F1
S1130F700168074A895C002903D1006802490968AD
S1130F80884701BD98FCFF1F94FCFF1F90FCFF1FC6
S1130F9006040000FEE700007047FEE780B500F09D
S1130FA08BF800F097F8002802D100F005F801E072
S1130FB000F096F8002002BD10B5FFF73BFFE121D9
S1130FC049022D48FFF76CFFFFF73DFF00F09DF845
S1130FD02A4C012020700521A020000200F038F9DD
S1130FE0274801682748FFF797FF06E0264801686D
S1130FF02648FFF791FF002020702078002839D080
S113100000F080F80028F8D100F08BF800F08FF899
S11310100128EBD026D3032814D003D3052819D0F4
S113102008D31FE01A4801681A48FFF775FF00202B
S11310302070E2E7184801681848FFF76DFF0020A8
S11310402070DAE7164801681648FFF765FF0020AC
S11310502070D2E7144801681448FFF75DFF0020B0
S11310602070CAE700F066F8114801681148FFF7DC
S113107053FFC2E710BD000000366E01A0FCFF1F45
S113108064160000EC1500005016000068140000FF
S1131090541600009414000058160000C0140000F8
S11310A05C16000008140000681600003C150000DF
S11310B0601600001016000080B54C20FFF71AF8E7
S11310C0012202210320FFF7E6FD02210320FFF79E
S11310D077FD01BD80B502210320FFF760FE02BD4C
S11310E080B506480068A021C903054A1160A02103
S11310F00902096881F30888804701BD04A0000043
S113110008ED00E01F480078704710B51E4C200021
S113111000F01AF92000FFF71CFF1C48FFF716FF28
S113112010BD80B51A49184800F0E6F801BD18480A
S11311308079704770B5164E7079401E022820D809
S113114030688021C90088421AD0124C306820606F
S1131150114D002028600FE0FFF703FF28683018C6
S1131160C11D206800F01AF8FFF7F6FE2068001D84
S113117020602868001D2860286831798842EBDBEC
S1131180FFE770BD0BFCFF1F04F8FF1F791200007E
S11311900CFCFF1F00F8FF1F9CFCFF1F10B5234A27
S11311A01378002BFBD01378802B01D030231370DD
S11311B006231F4C237003001B0C1E4C2370030AD0
S11311C01D4C23701D4B1870C8781D4B18708878FF
S11311D01C4B187048781C4B187008781B49087011
S11311E08020107010780028FCD0012010BD00B5BC
S11311F00E490A78002AFBD00A78802A01D03022CE
S11312000A7009220A4B1A700200120C094B1A7058
S1131210020A094B1A70094A107080200870087875
S11312200028FCD0012000BD0000000000000240A6
S1131230070002400600024005000240040002408C
S11312400B0002400A00024009000240080002406C
S113125070B505000C00002606E03000C0B2800224
S11312602818FFF7C4FF761C30002100C0B2C9B2B1
S11312708842F2D3012070BD10B504008020C00064
S1131280205A000220183749615A4018FFF74BFED4
S11312908020C000205A000220183249615A405C64
S11312A00A2823D1002001002F4AA1548021C9001B
S11312B0615A491C8022D200A1522A4960528021DD
S11312C0C900615A042902DB8021C90060528020D0
S11312D0C000205A2549615A88420CD10120244972
S11312E060540D212348FFF717FE04E01D48205ADF
S11312F0401C1C49605210BD30B5A1B004000D0063
S11313001A48205A000221186846FFF7DEFA28001E
S113131069468422FEF7D4FE1448205A401C13491F
S113132060521248205A042802DB00200F49605200
S11313308020C000205A0D49615A884202D1012000
S11313400949605421B030BD00218022D20081526D
S1131350064A8152034A8152054A81540121024AB4
S113136081547047040400000704000002040000D4
S1131370060400000016000080B50C4801688904CA
S113138003D50B490B4A116004E00A490A4A0A6072
S11313900A4A0A600A490B4A116001688022914393
S11313A020220A43026000F00FF801BD002005402E
S11313B020C528D90420054020C5000028D90000F4
S11313C0FFFF000008200540704770B4012300248B
S11313D013E00168001D194202D04D466918491EE8
S11313E00C60091D121F042AFAD20D00960701D5BC
S11313F00C80AD1C1A4000D02C700268001D002A1D
S1131400E7D170BC7047FEE742414420434845435E
S11314104B2053554D212E20526573657420616E07
S1131420642074727920746F20666C617368206123
S11314306761696E0000000030B401220EE00368A9
S1131440C31844680830144202D04D462C19641E57
S11314501D6825601B1D241D091FF9D10168001D8D
S11314600029ECD130BC704742414420464F524DD4
S11314704154212E20526573657420616E6420747A
S1131480727920746F20666C61736820616761698A
S11314906E000000424144205245434F5244212EE5
S11314A020526573657420616E64207472792074AF
S11314B06F20666C61736820616761696E0000006B
S11314C042414420434F554E54212E2052657365AA
S11314D07420616E642074727920746F20666C616C
S11314E0736820616761696E0000000072B6054888
S11314F0054901600A6882F308880448804762B697
S11315000348004708ED00E00000000079130000E4
S1131510D115000010B5074979441831064C7C44B4
S1131520163404E0081D0A68891888470100A1429E
S1131530F8D110BD2C0000004C000000464C415373
S11315404820434F4D504C455445212E205265733D
S1131550657420746F20636F6E74696E7565000026
S11315606BFEFFFFA004000004F8FF1F0000000052
S1131570C9FEFFFF040000008CECFFFF00F8FF1F12
S11315800000000000F00DF8002801D0FFF7C2FFB2
S113159000BF00BF002000BF00BFFFF7FFFC00F04A
S11315A002F80120704780B500F002F801BDFEE7A3
S11315B00746384600F002F8FBE7FEE780B500BFB7
S11315C000BF024A11001820ABBEFBE72600020050
S11315D00548014603B4684680F3098800BF00BF8C
S11315E000BF00BFFFF7CEFFA5EDF5FE506C6561AF
S11315F073652073656E642066696C650D0A00006E
S113160066756C6C206275666665720A000000007F
S11316103E3E0D0A00000000004800474916000045
S113162000480047491600000048004749160000DA
S113163000480047491600000048004749160000CA
S113164000480047491600000048004749160000BA
S11316502900000029000000280000002C000000E0
S10F166004000000120000002200000042
S90315D116
